{
  "contractName": "LuxChain",
  "abi": [
    {
      "inputs": [
        {
          "internalType": "string",
          "name": "_name",
          "type": "string"
        },
        {
          "internalType": "string",
          "name": "_symbol",
          "type": "string"
        }
      ],
      "stateMutability": "nonpayable",
      "type": "constructor"
    },
    {
      "anonymous": false,
      "inputs": [
        {
          "indexed": true,
          "internalType": "address",
          "name": "owner",
          "type": "address"
        },
        {
          "indexed": true,
          "internalType": "address",
          "name": "approved",
          "type": "address"
        },
        {
          "indexed": true,
          "internalType": "uint256",
          "name": "tokenId",
          "type": "uint256"
        }
      ],
      "name": "Approval",
      "type": "event"
    },
    {
      "anonymous": false,
      "inputs": [
        {
          "indexed": true,
          "internalType": "address",
          "name": "owner",
          "type": "address"
        },
        {
          "indexed": true,
          "internalType": "address",
          "name": "operator",
          "type": "address"
        },
        {
          "indexed": false,
          "internalType": "bool",
          "name": "approved",
          "type": "bool"
        }
      ],
      "name": "ApprovalForAll",
      "type": "event"
    },
    {
      "anonymous": false,
      "inputs": [
        {
          "indexed": true,
          "internalType": "address",
          "name": "from",
          "type": "address"
        },
        {
          "indexed": true,
          "internalType": "address",
          "name": "to",
          "type": "address"
        },
        {
          "indexed": true,
          "internalType": "uint256",
          "name": "tokenId",
          "type": "uint256"
        }
      ],
      "name": "Transfer",
      "type": "event"
    },
    {
      "anonymous": false,
      "inputs": [
        {
          "indexed": false,
          "internalType": "uint256",
          "name": "_tokenId",
          "type": "uint256"
        }
      ],
      "name": "invalidToken",
      "type": "event"
    },
    {
      "anonymous": false,
      "inputs": [
        {
          "indexed": false,
          "internalType": "address",
          "name": "_to",
          "type": "address"
        },
        {
          "indexed": false,
          "internalType": "string",
          "name": "_serNumber",
          "type": "string"
        },
        {
          "indexed": false,
          "internalType": "uint256",
          "name": "tokenId",
          "type": "uint256"
        }
      ],
      "name": "mintToken",
      "type": "event"
    },
    {
      "anonymous": false,
      "inputs": [
        {
          "indexed": false,
          "internalType": "uint256",
          "name": "_tokenId",
          "type": "uint256"
        }
      ],
      "name": "tokenLost",
      "type": "event"
    },
    {
      "anonymous": false,
      "inputs": [
        {
          "indexed": false,
          "internalType": "uint256",
          "name": "_tokenId",
          "type": "uint256"
        }
      ],
      "name": "tokendestory",
      "type": "event"
    },
    {
      "anonymous": false,
      "inputs": [
        {
          "indexed": false,
          "internalType": "uint256",
          "name": "_tokenId",
          "type": "uint256"
        }
      ],
      "name": "tokenrestored",
      "type": "event"
    },
    {
      "anonymous": false,
      "inputs": [
        {
          "indexed": false,
          "internalType": "address",
          "name": "_from",
          "type": "address"
        },
        {
          "indexed": false,
          "internalType": "address",
          "name": "_to",
          "type": "address"
        },
        {
          "indexed": false,
          "internalType": "uint256",
          "name": "_tokenId",
          "type": "uint256"
        }
      ],
      "name": "transferEvent",
      "type": "event"
    },
    {
      "inputs": [
        {
          "internalType": "address",
          "name": "to",
          "type": "address"
        },
        {
          "internalType": "uint256",
          "name": "tokenId",
          "type": "uint256"
        }
      ],
      "name": "approve",
      "outputs": [],
      "stateMutability": "nonpayable",
      "type": "function"
    },
    {
      "inputs": [
        {
          "internalType": "address",
          "name": "owner",
          "type": "address"
        }
      ],
      "name": "balanceOf",
      "outputs": [
        {
          "internalType": "uint256",
          "name": "",
          "type": "uint256"
        }
      ],
      "stateMutability": "view",
      "type": "function",
      "constant": true
    },
    {
      "inputs": [
        {
          "internalType": "uint256",
          "name": "tokenId",
          "type": "uint256"
        }
      ],
      "name": "getApproved",
      "outputs": [
        {
          "internalType": "address",
          "name": "",
          "type": "address"
        }
      ],
      "stateMutability": "view",
      "type": "function",
      "constant": true
    },
    {
      "inputs": [
        {
          "internalType": "address",
          "name": "owner",
          "type": "address"
        },
        {
          "internalType": "address",
          "name": "operator",
          "type": "address"
        }
      ],
      "name": "isApprovedForAll",
      "outputs": [
        {
          "internalType": "bool",
          "name": "",
          "type": "bool"
        }
      ],
      "stateMutability": "view",
      "type": "function",
      "constant": true
    },
    {
      "inputs": [],
      "name": "name",
      "outputs": [
        {
          "internalType": "string",
          "name": "",
          "type": "string"
        }
      ],
      "stateMutability": "view",
      "type": "function",
      "constant": true
    },
    {
      "inputs": [
        {
          "internalType": "uint256",
          "name": "tokenId",
          "type": "uint256"
        }
      ],
      "name": "ownerOf",
      "outputs": [
        {
          "internalType": "address",
          "name": "",
          "type": "address"
        }
      ],
      "stateMutability": "view",
      "type": "function",
      "constant": true
    },
    {
      "inputs": [
        {
          "internalType": "address",
          "name": "from",
          "type": "address"
        },
        {
          "internalType": "address",
          "name": "to",
          "type": "address"
        },
        {
          "internalType": "uint256",
          "name": "tokenId",
          "type": "uint256"
        }
      ],
      "name": "safeTransferFrom",
      "outputs": [],
      "stateMutability": "nonpayable",
      "type": "function"
    },
    {
      "inputs": [
        {
          "internalType": "address",
          "name": "from",
          "type": "address"
        },
        {
          "internalType": "address",
          "name": "to",
          "type": "address"
        },
        {
          "internalType": "uint256",
          "name": "tokenId",
          "type": "uint256"
        },
        {
          "internalType": "bytes",
          "name": "_data",
          "type": "bytes"
        }
      ],
      "name": "safeTransferFrom",
      "outputs": [],
      "stateMutability": "nonpayable",
      "type": "function"
    },
    {
      "inputs": [
        {
          "internalType": "address",
          "name": "operator",
          "type": "address"
        },
        {
          "internalType": "bool",
          "name": "approved",
          "type": "bool"
        }
      ],
      "name": "setApprovalForAll",
      "outputs": [],
      "stateMutability": "nonpayable",
      "type": "function"
    },
    {
      "inputs": [
        {
          "internalType": "bytes4",
          "name": "interfaceId",
          "type": "bytes4"
        }
      ],
      "name": "supportsInterface",
      "outputs": [
        {
          "internalType": "bool",
          "name": "",
          "type": "bool"
        }
      ],
      "stateMutability": "view",
      "type": "function",
      "constant": true
    },
    {
      "inputs": [],
      "name": "symbol",
      "outputs": [
        {
          "internalType": "string",
          "name": "",
          "type": "string"
        }
      ],
      "stateMutability": "view",
      "type": "function",
      "constant": true
    },
    {
      "inputs": [
        {
          "internalType": "uint256",
          "name": "tokenId",
          "type": "uint256"
        }
      ],
      "name": "tokenURI",
      "outputs": [
        {
          "internalType": "string",
          "name": "",
          "type": "string"
        }
      ],
      "stateMutability": "view",
      "type": "function",
      "constant": true
    },
    {
      "inputs": [
        {
          "internalType": "uint256",
          "name": "_tokenId",
          "type": "uint256"
        }
      ],
      "name": "invalidated",
      "outputs": [],
      "stateMutability": "nonpayable",
      "type": "function"
    },
    {
      "inputs": [
        {
          "internalType": "address",
          "name": "_to",
          "type": "address"
        },
        {
          "internalType": "string",
          "name": "_serialNumber",
          "type": "string"
        },
        {
          "internalType": "string",
          "name": "_name",
          "type": "string"
        }
      ],
      "name": "mint",
      "outputs": [],
      "stateMutability": "nonpayable",
      "type": "function"
    },
    {
      "inputs": [
        {
          "internalType": "uint256",
          "name": "_tokenId",
          "type": "uint256"
        }
      ],
      "name": "invalidateToken",
      "outputs": [],
      "stateMutability": "nonpayable",
      "type": "function"
    },
    {
      "inputs": [
        {
          "internalType": "uint256",
          "name": "_tokenId",
          "type": "uint256"
        }
      ],
      "name": "reportlost",
      "outputs": [],
      "stateMutability": "nonpayable",
      "type": "function"
    },
    {
      "inputs": [
        {
          "internalType": "uint256",
          "name": "_tokenId",
          "type": "uint256"
        }
      ],
      "name": "restoreToken",
      "outputs": [],
      "stateMutability": "nonpayable",
      "type": "function"
    },
    {
      "inputs": [
        {
          "internalType": "uint256",
          "name": "_tokenId",
          "type": "uint256"
        }
      ],
      "name": "checkState",
      "outputs": [
        {
          "internalType": "enum LuxChain.stages",
          "name": "",
          "type": "uint8"
        }
      ],
      "stateMutability": "view",
      "type": "function",
      "constant": true
    },
    {
      "inputs": [
        {
          "internalType": "address",
          "name": "_from",
          "type": "address"
        },
        {
          "internalType": "address",
          "name": "_to",
          "type": "address"
        },
        {
          "internalType": "uint256",
          "name": "_tokenId",
          "type": "uint256"
        }
      ],
      "name": "transferFrom",
      "outputs": [],
      "stateMutability": "nonpayable",
      "type": "function"
    },
    {
      "inputs": [
        {
          "internalType": "uint256",
          "name": "_tokenId",
          "type": "uint256"
        },
        {
          "internalType": "string",
          "name": "_information",
          "type": "string"
        }
      ],
      "name": "updateInformation",
      "outputs": [],
      "stateMutability": "nonpayable",
      "type": "function"
    },
    {
      "inputs": [
        {
          "internalType": "uint256",
          "name": "_tokenId",
          "type": "uint256"
        }
      ],
      "name": "viewSerialNumber",
      "outputs": [
        {
          "internalType": "string",
          "name": "",
          "type": "string"
        }
      ],
      "stateMutability": "view",
      "type": "function",
      "constant": true
    },
    {
      "inputs": [
        {
          "internalType": "uint256",
          "name": "_tokenId",
          "type": "uint256"
        }
      ],
      "name": "viewName",
      "outputs": [
        {
          "internalType": "string",
          "name": "",
          "type": "string"
        }
      ],
      "stateMutability": "view",
      "type": "function",
      "constant": true
    },
    {
      "inputs": [
        {
          "internalType": "string",
          "name": "_serialNumber",
          "type": "string"
        }
      ],
      "name": "viewTokenId",
      "outputs": [
        {
          "internalType": "uint256",
          "name": "",
          "type": "uint256"
        }
      ],
      "stateMutability": "view",
      "type": "function",
      "constant": true
    },
    {
      "inputs": [],
      "name": "getTotalSupply",
      "outputs": [
        {
          "internalType": "uint256",
          "name": "",
          "type": "uint256"
        }
      ],
      "stateMutability": "view",
      "type": "function",
      "constant": true
    }
  ],
  "bytecode": "0x608060405233600660006101000a81548173ffffffffffffffffffffffffffffffffffffffff021916908373ffffffffffffffffffffffffffffffffffffffff1602179055503480156200005257600080fd5b506040516200455138038062004551833981810160405281019062000078919062000303565b8181816000908051906020019062000092929190620000b6565b508060019080519060200190620000ab929190620000b6565b5050505050620003ed565b828054620000c490620003b7565b90600052602060002090601f016020900481019282620000e8576000855562000134565b82601f106200010357805160ff191683800117855562000134565b8280016001018555821562000134579182015b828111156200013357825182559160200191906001019062000116565b5b50905062000143919062000147565b5090565b5b808211156200016257600081600090555060010162000148565b5090565b6000604051905090565b600080fd5b600080fd5b600080fd5b600080fd5b6000601f19601f8301169050919050565b7f4e487b7100000000000000000000000000000000000000000000000000000000600052604160045260246000fd5b620001cf8262000184565b810181811067ffffffffffffffff82111715620001f157620001f062000195565b5b80604052505050565b60006200020662000166565b9050620002148282620001c4565b919050565b600067ffffffffffffffff82111562000237576200023662000195565b5b620002428262000184565b9050602081019050919050565b60005b838110156200026f57808201518184015260208101905062000252565b838111156200027f576000848401525b50505050565b60006200029c620002968462000219565b620001fa565b905082815260208101848484011115620002bb57620002ba6200017f565b5b620002c88482856200024f565b509392505050565b600082601f830112620002e857620002e76200017a565b5b8151620002fa84826020860162000285565b91505092915050565b600080604083850312156200031d576200031c62000170565b5b600083015167ffffffffffffffff8111156200033e576200033d62000175565b5b6200034c85828601620002d0565b925050602083015167ffffffffffffffff81111562000370576200036f62000175565b5b6200037e85828601620002d0565b9150509250929050565b7f4e487b7100000000000000000000000000000000000000000000000000000000600052602260045260246000fd5b60006002820490506001821680620003d057607f821691505b60208210811415620003e757620003e662000388565b5b50919050565b61415480620003fd6000396000f3fe608060405234801561001057600080fd5b50600436106101585760003560e01c806370a08231116100c3578063c87b56dd1161007c578063c87b56dd146103e7578063d340c3c514610417578063d4456eeb14610447578063e96fe90514610463578063e985e9c51461047f578063fc1149ae146104af57610158565b806370a082311461032757806395d89b41146103575780639907119014610375578063a22cb46514610391578063b88d4fde146103ad578063c4e41b22146103c957610158565b8063207b850911610115578063207b85091461025757806323b872dd14610287578063393ed91a146102a357806342842e0e146102bf5780634f5e9376146102db5780636352211e146102f757610158565b806301ffc9a71461015d57806306fdde031461018d578063081812fc146101ab578063095ea7b3146101db5780630fdcf877146101f75780631b868d0014610227575b600080fd5b61017760048036038101906101729190612c38565b6104cb565b6040516101849190612c80565b60405180910390f35b6101956105ad565b6040516101a29190612d34565b60405180910390f35b6101c560048036038101906101c09190612d8c565b61063f565b6040516101d29190612dfa565b60405180910390f35b6101f560048036038101906101f09190612e41565b6106c4565b005b610211600480360381019061020c9190612d8c565b6107dc565b60405161021e9190612ef8565b60405180910390f35b610241600480360381019061023c9190612d8c565b610809565b60405161024e9190612d34565b60405180910390f35b610271600480360381019061026c9190613048565b6108b1565b60405161027e91906130a0565b60405180910390f35b6102a1600480360381019061029c91906130bb565b6108d9565b005b6102bd60048036038101906102b89190612d8c565b610bbc565b005b6102d960048036038101906102d491906130bb565b610e6e565b005b6102f560048036038101906102f0919061310e565b610e8e565b005b610311600480360381019061030c9190612d8c565b61108f565b60405161031e9190612dfa565b60405180910390f35b610341600480360381019061033c919061316a565b611141565b60405161034e91906130a0565b60405180910390f35b61035f6111f9565b60405161036c9190612d34565b60405180910390f35b61038f600480360381019061038a9190613197565b61128b565b005b6103ab60048036038101906103a6919061324e565b61149a565b005b6103c760048036038101906103c2919061332f565b6114b0565b005b6103d1611512565b6040516103de91906130a0565b60405180910390f35b61040160048036038101906103fc9190612d8c565b61151c565b60405161040e9190612d34565b60405180910390f35b610431600480360381019061042c9190612d8c565b6115c3565b60405161043e9190612d34565b60405180910390f35b610461600480360381019061045c9190612d8c565b61166b565b005b61047d60048036038101906104789190612d8c565b6117fe565b005b610499600480360381019061049491906133b2565b611a95565b6040516104a69190612c80565b60405180910390f35b6104c960048036038101906104c49190612d8c565b611b29565b005b60007f80ac58cd000000000000000000000000000000000000000000000000000000007bffffffffffffffffffffffffffffffffffffffffffffffffffffffff1916827bffffffffffffffffffffffffffffffffffffffffffffffffffffffff1916148061059657507f5b5e139f000000000000000000000000000000000000000000000000000000007bffffffffffffffffffffffffffffffffffffffffffffffffffffffff1916827bffffffffffffffffffffffffffffffffffffffffffffffffffffffff1916145b806105a657506105a582611e00565b5b9050919050565b6060600080546105bc90613421565b80601f01602080910402602001604051908101604052809291908181526020018280546105e890613421565b80156106355780601f1061060a57610100808354040283529160200191610635565b820191906000526020600020905b81548152906001019060200180831161061857829003601f168201915b5050505050905090565b600061064a82611e6a565b610689576040517f08c379a0000000000000000000000000000000000000000000000000000000008152600401610680906134c5565b60405180910390fd5b6004600083815260200190815260200160002060009054906101000a900473ffffffffffffffffffffffffffffffffffffffff169050919050565b60006106cf8261108f565b90508073ffffffffffffffffffffffffffffffffffffffff168373ffffffffffffffffffffffffffffffffffffffff161415610740576040517f08c379a000000000000000000000000000000000000000000000000000000000815260040161073790613557565b60405180910390fd5b8073ffffffffffffffffffffffffffffffffffffffff1661075f611ed6565b73ffffffffffffffffffffffffffffffffffffffff16148061078e575061078d81610788611ed6565b611a95565b5b6107cd576040517f08c379a00000000000000000000000000000000000000000000000000000000081526004016107c4906135e9565b60405180910390fd5b6107d78383611ede565b505050565b60006008600083815260200190815260200160002060030160009054906101000a900460ff169050919050565b606060086000838152602001908152602001600020600101805461082c90613421565b80601f016020809104026020016040519081016040528092919081815260200182805461085890613421565b80156108a55780601f1061087a576101008083540402835291602001916108a5565b820191906000526020600020905b81548152906001019060200180831161088857829003601f168201915b50505050509050919050565b60006009826040516108c39190613645565b9081526020016040518091039020549050919050565b80600260038111156108ee576108ed612e81565b5b6008600083815260200190815260200160002060030160009054906101000a900460ff16600381111561092457610923612e81565b5b1480156109555750620a8c006008600083815260200190815260200160002060040154610951919061368b565b4210155b156109da5760036008600083815260200190815260200160002060030160006101000a81548160ff0219169083600381111561099457610993612e81565b5b02179055506109a281611f97565b7f16499e91d2432d8838e5dff38cb02f39fa94752ccff3f3f061b8faeee31308cb816040516109d191906130a0565b60405180910390a15b81600660009054906101000a900473ffffffffffffffffffffffffffffffffffffffff1673ffffffffffffffffffffffffffffffffffffffff163373ffffffffffffffffffffffffffffffffffffffff161480610a6a5750610a3b8161108f565b73ffffffffffffffffffffffffffffffffffffffff163373ffffffffffffffffffffffffffffffffffffffff16145b610aa9576040517f08c379a0000000000000000000000000000000000000000000000000000000008152600401610aa09061372d565b60405180910390fd5b8260006003811115610abe57610abd612e81565b5b6008600083815260200190815260200160002060030160009054906101000a900460ff166003811115610af457610af3612e81565b5b14610b34576040517f08c379a0000000000000000000000000000000000000000000000000000000008152600401610b2b90613799565b60405180910390fd5b610b3f8686866120b4565b60405180602001604052806000815250600860008681526020019081526020016000206002019080519060200190610b78929190612b29565b507f5d439cf3a1f6215b41908e5b0b300f39679a3ff1cc010691c1d4ec4d0e2a4ebb868686604051610bac939291906137b9565b60405180910390a1505050505050565b600660009054906101000a900473ffffffffffffffffffffffffffffffffffffffff1673ffffffffffffffffffffffffffffffffffffffff163373ffffffffffffffffffffffffffffffffffffffff1614610c4c576040517f08c379a0000000000000000000000000000000000000000000000000000000008152600401610c439061383c565b60405180910390fd5b8060026003811115610c6157610c60612e81565b5b6008600083815260200190815260200160002060030160009054906101000a900460ff166003811115610c9757610c96612e81565b5b148015610cc85750620a8c006008600083815260200190815260200160002060040154610cc4919061368b565b4210155b15610d4d5760036008600083815260200190815260200160002060030160006101000a81548160ff02191690836003811115610d0757610d06612e81565b5b0217905550610d1581611f97565b7f16499e91d2432d8838e5dff38cb02f39fa94752ccff3f3f061b8faeee31308cb81604051610d4491906130a0565b60405180910390a15b8160006003811115610d6257610d61612e81565b5b6008600083815260200190815260200160002060030160009054906101000a900460ff166003811115610d9857610d97612e81565b5b14610dd8576040517f08c379a0000000000000000000000000000000000000000000000000000000008152600401610dcf90613799565b60405180910390fd5b60026008600085815260200190815260200160002060030160006101000a81548160ff02191690836003811115610e1257610e11612e81565b5b02179055504260086000858152602001908152602001600020600401819055507f1b0cd44f7de60590c135202a674c3e37546a8a53e701d13f36d5a4185c03313383604051610e6191906130a0565b60405180910390a1505050565b610e89838383604051806020016040528060008152506114b0565b505050565b81600660009054906101000a900473ffffffffffffffffffffffffffffffffffffffff1673ffffffffffffffffffffffffffffffffffffffff163373ffffffffffffffffffffffffffffffffffffffff161480610f1e5750610eef8161108f565b73ffffffffffffffffffffffffffffffffffffffff163373ffffffffffffffffffffffffffffffffffffffff16145b610f5d576040517f08c379a0000000000000000000000000000000000000000000000000000000008152600401610f549061372d565b60405180910390fd5b8260026003811115610f7257610f71612e81565b5b6008600083815260200190815260200160002060030160009054906101000a900460ff166003811115610fa857610fa7612e81565b5b148015610fd95750620a8c006008600083815260200190815260200160002060040154610fd5919061368b565b4210155b1561105e5760036008600083815260200190815260200160002060030160006101000a81548160ff0219169083600381111561101857611017612e81565b5b021790555061102681611f97565b7f16499e91d2432d8838e5dff38cb02f39fa94752ccff3f3f061b8faeee31308cb8160405161105591906130a0565b60405180910390a15b82600860008681526020019081526020016000206002019080519060200190611088929190612b29565b5050505050565b6000806002600084815260200190815260200160002060009054906101000a900473ffffffffffffffffffffffffffffffffffffffff169050600073ffffffffffffffffffffffffffffffffffffffff168173ffffffffffffffffffffffffffffffffffffffff161415611138576040517f08c379a000000000000000000000000000000000000000000000000000000000815260040161112f906138ce565b60405180910390fd5b80915050919050565b60008073ffffffffffffffffffffffffffffffffffffffff168273ffffffffffffffffffffffffffffffffffffffff1614156111b2576040517f08c379a00000000000000000000000000000000000000000000000000000000081526004016111a990613960565b60405180910390fd5b600360008373ffffffffffffffffffffffffffffffffffffffff1673ffffffffffffffffffffffffffffffffffffffff168152602001908152602001600020549050919050565b60606001805461120890613421565b80601f016020809104026020016040519081016040528092919081815260200182805461123490613421565b80156112815780601f1061125657610100808354040283529160200191611281565b820191906000526020600020905b81548152906001019060200180831161126457829003601f168201915b5050505050905090565b600660009054906101000a900473ffffffffffffffffffffffffffffffffffffffff1673ffffffffffffffffffffffffffffffffffffffff163373ffffffffffffffffffffffffffffffffffffffff161461131b576040517f08c379a00000000000000000000000000000000000000000000000000000000081526004016113129061383c565b60405180910390fd5b61132783600754612114565b60006040518060a001604052808481526020018381526020016040518060200160405280600081525081526020016000600381111561136957611368612e81565b5b81526020014281525090508060086000600754815260200190815260200160002060008201518160000190805190602001906113a6929190612b29565b5060208201518160010190805190602001906113c3929190612b29565b5060408201518160020190805190602001906113e0929190612b29565b5060608201518160030160006101000a81548160ff0219169083600381111561140c5761140b612e81565b5b0217905550608082015181600401559050506007600081548092919061143190613980565b919050556009846040516114459190613645565b9081526020016040518091039020819055507f611b2fed7af3df9474d8f5e903e1010a44fc43fded2f4cde0cc65a1c93e77982848460075460405161148c939291906139c9565b60405180910390a150505050565b6114ac6114a5611ed6565b83836122ee565b5050565b6114c16114bb611ed6565b8361245b565b611500576040517f08c379a00000000000000000000000000000000000000000000000000000000081526004016114f790613a79565b60405180910390fd5b61150c84848484612539565b50505050565b6000600754905090565b606061152782611e6a565b611566576040517f08c379a000000000000000000000000000000000000000000000000000000000815260040161155d90613b0b565b60405180910390fd5b6000611570612595565b9050600081511161159057604051806020016040528060008152506115bb565b8061159a846125ac565b6040516020016115ab929190613b2b565b6040516020818303038152906040525b915050919050565b60606008600083815260200190815260200160002060000180546115e690613421565b80601f016020809104026020016040519081016040528092919081815260200182805461161290613421565b801561165f5780601f106116345761010080835404028352916020019161165f565b820191906000526020600020905b81548152906001019060200180831161164257829003601f168201915b50505050509050919050565b600660009054906101000a900473ffffffffffffffffffffffffffffffffffffffff1673ffffffffffffffffffffffffffffffffffffffff163373ffffffffffffffffffffffffffffffffffffffff16146116fb576040517f08c379a00000000000000000000000000000000000000000000000000000000081526004016116f29061383c565b60405180910390fd5b6002600381111561170f5761170e612e81565b5b6008600083815260200190815260200160002060030160009054906101000a900460ff16600381111561174557611744612e81565b5b1480156117765750620a8c006008600083815260200190815260200160002060040154611772919061368b565b4210155b156117fb5760036008600083815260200190815260200160002060030160006101000a81548160ff021916908360038111156117b5576117b4612e81565b5b02179055506117c381611f97565b7f16499e91d2432d8838e5dff38cb02f39fa94752ccff3f3f061b8faeee31308cb816040516117f291906130a0565b60405180910390a15b50565b600660009054906101000a900473ffffffffffffffffffffffffffffffffffffffff1673ffffffffffffffffffffffffffffffffffffffff163373ffffffffffffffffffffffffffffffffffffffff161461188e576040517f08c379a00000000000000000000000000000000000000000000000000000000081526004016118859061383c565b60405180910390fd5b80600260038111156118a3576118a2612e81565b5b6008600083815260200190815260200160002060030160009054906101000a900460ff1660038111156118d9576118d8612e81565b5b14801561190a5750620a8c006008600083815260200190815260200160002060040154611906919061368b565b4210155b1561198f5760036008600083815260200190815260200160002060030160006101000a81548160ff0219169083600381111561194957611948612e81565b5b021790555061195781611f97565b7f16499e91d2432d8838e5dff38cb02f39fa94752ccff3f3f061b8faeee31308cb8160405161198691906130a0565b60405180910390a15b816003808111156119a3576119a2612e81565b5b6008600083815260200190815260200160002060030160009054906101000a900460ff1660038111156119d9576119d8612e81565b5b1415611a1a576040517f08c379a0000000000000000000000000000000000000000000000000000000008152600401611a1190613b9b565b60405180910390fd5b60006008600085815260200190815260200160002060030160006101000a81548160ff02191690836003811115611a5457611a53612e81565b5b02179055507f6f1e384d0c04e4517b853b567c90c9a4001203d9ffa8d7a0e6b74a526411f25d83604051611a8891906130a0565b60405180910390a1505050565b6000600560008473ffffffffffffffffffffffffffffffffffffffff1673ffffffffffffffffffffffffffffffffffffffff16815260200190815260200160002060008373ffffffffffffffffffffffffffffffffffffffff1673ffffffffffffffffffffffffffffffffffffffff16815260200190815260200160002060009054906101000a900460ff16905092915050565b80600660009054906101000a900473ffffffffffffffffffffffffffffffffffffffff1673ffffffffffffffffffffffffffffffffffffffff163373ffffffffffffffffffffffffffffffffffffffff161480611bb95750611b8a8161108f565b73ffffffffffffffffffffffffffffffffffffffff163373ffffffffffffffffffffffffffffffffffffffff16145b611bf8576040517f08c379a0000000000000000000000000000000000000000000000000000000008152600401611bef9061372d565b60405180910390fd5b8160026003811115611c0d57611c0c612e81565b5b6008600083815260200190815260200160002060030160009054906101000a900460ff166003811115611c4357611c42612e81565b5b148015611c745750620a8c006008600083815260200190815260200160002060040154611c70919061368b565b4210155b15611cf95760036008600083815260200190815260200160002060030160006101000a81548160ff02191690836003811115611cb357611cb2612e81565b5b0217905550611cc181611f97565b7f16499e91d2432d8838e5dff38cb02f39fa94752ccff3f3f061b8faeee31308cb81604051611cf091906130a0565b60405180910390a15b8260006003811115611d0e57611d0d612e81565b5b6008600083815260200190815260200160002060030160009054906101000a900460ff166003811115611d4457611d43612e81565b5b14611d84576040517f08c379a0000000000000000000000000000000000000000000000000000000008152600401611d7b90613799565b60405180910390fd5b60016008600086815260200190815260200160002060030160006101000a81548160ff02191690836003811115611dbe57611dbd612e81565b5b02179055507f8009a67fcb765e991aad86deaf05be1aa2eb10725a1dc516f5858c78cf88459584604051611df291906130a0565b60405180910390a150505050565b60007f01ffc9a7000000000000000000000000000000000000000000000000000000007bffffffffffffffffffffffffffffffffffffffffffffffffffffffff1916827bffffffffffffffffffffffffffffffffffffffffffffffffffffffff1916149050919050565b60008073ffffffffffffffffffffffffffffffffffffffff166002600084815260200190815260200160002060009054906101000a900473ffffffffffffffffffffffffffffffffffffffff1673ffffffffffffffffffffffffffffffffffffffff1614159050919050565b600033905090565b816004600083815260200190815260200160002060006101000a81548173ffffffffffffffffffffffffffffffffffffffff021916908373ffffffffffffffffffffffffffffffffffffffff160217905550808273ffffffffffffffffffffffffffffffffffffffff16611f518361108f565b73ffffffffffffffffffffffffffffffffffffffff167f8c5be1e5ebec7d5bd14f71427d1e84f3dd0314c0f7b2291e5b200ac8c7c3b92560405160405180910390a45050565b6000611fa28261108f565b9050611fb08160008461270d565b611fbb600083611ede565b6001600360008373ffffffffffffffffffffffffffffffffffffffff1673ffffffffffffffffffffffffffffffffffffffff168152602001908152602001600020600082825461200b9190613bbb565b925050819055506002600083815260200190815260200160002060006101000a81549073ffffffffffffffffffffffffffffffffffffffff021916905581600073ffffffffffffffffffffffffffffffffffffffff168273ffffffffffffffffffffffffffffffffffffffff167fddf252ad1be2c89b69c2b068fc378daa952ba7f163c4a11628f55a4df523b3ef60405160405180910390a46120b081600084612712565b5050565b6120c56120bf611ed6565b8261245b565b612104576040517f08c379a00000000000000000000000000000000000000000000000000000000081526004016120fb90613a79565b60405180910390fd5b61210f838383612717565b505050565b600073ffffffffffffffffffffffffffffffffffffffff168273ffffffffffffffffffffffffffffffffffffffff161415612184576040517f08c379a000000000000000000000000000000000000000000000000000000000815260040161217b90613c3b565b60405180910390fd5b61218d81611e6a565b156121cd576040517f08c379a00000000000000000000000000000000000000000000000000000000081526004016121c490613ca7565b60405180910390fd5b6121d96000838361270d565b6001600360008473ffffffffffffffffffffffffffffffffffffffff1673ffffffffffffffffffffffffffffffffffffffff1681526020019081526020016000206000828254612229919061368b565b92505081905550816002600083815260200190815260200160002060006101000a81548173ffffffffffffffffffffffffffffffffffffffff021916908373ffffffffffffffffffffffffffffffffffffffff160217905550808273ffffffffffffffffffffffffffffffffffffffff16600073ffffffffffffffffffffffffffffffffffffffff167fddf252ad1be2c89b69c2b068fc378daa952ba7f163c4a11628f55a4df523b3ef60405160405180910390a46122ea60008383612712565b5050565b8173ffffffffffffffffffffffffffffffffffffffff168373ffffffffffffffffffffffffffffffffffffffff16141561235d576040517f08c379a000000000000000000000000000000000000000000000000000000000815260040161235490613d13565b60405180910390fd5b80600560008573ffffffffffffffffffffffffffffffffffffffff1673ffffffffffffffffffffffffffffffffffffffff16815260200190815260200160002060008473ffffffffffffffffffffffffffffffffffffffff1673ffffffffffffffffffffffffffffffffffffffff16815260200190815260200160002060006101000a81548160ff0219169083151502179055508173ffffffffffffffffffffffffffffffffffffffff168373ffffffffffffffffffffffffffffffffffffffff167f17307eab39ab6107e8899845ad3d59bd9653f200f220920489ca2b5937696c318360405161244e9190612c80565b60405180910390a3505050565b600061246682611e6a565b6124a5576040517f08c379a000000000000000000000000000000000000000000000000000000000815260040161249c90613da5565b60405180910390fd5b60006124b08361108f565b90508073ffffffffffffffffffffffffffffffffffffffff168473ffffffffffffffffffffffffffffffffffffffff16148061251f57508373ffffffffffffffffffffffffffffffffffffffff166125078461063f565b73ffffffffffffffffffffffffffffffffffffffff16145b80612530575061252f8185611a95565b5b91505092915050565b612544848484612717565b6125508484848461297e565b61258f576040517f08c379a000000000000000000000000000000000000000000000000000000000815260040161258690613e37565b60405180910390fd5b50505050565b606060405180602001604052806000815250905090565b606060008214156125f4576040518060400160405280600181526020017f30000000000000000000000000000000000000000000000000000000000000008152509050612708565b600082905060005b6000821461262657808061260f90613980565b915050600a8261261f9190613e86565b91506125fc565b60008167ffffffffffffffff81111561264257612641612f1d565b5b6040519080825280601f01601f1916602001820160405280156126745781602001600182028036833780820191505090505b5090505b600085146127015760018261268d9190613bbb565b9150600a8561269c9190613eb7565b60306126a8919061368b565b60f81b8183815181106126be576126bd613ee8565b5b60200101907effffffffffffffffffffffffffffffffffffffffffffffffffffffffffffff1916908160001a905350600a856126fa9190613e86565b9450612678565b8093505050505b919050565b505050565b505050565b8273ffffffffffffffffffffffffffffffffffffffff166127378261108f565b73ffffffffffffffffffffffffffffffffffffffff161461278d576040517f08c379a000000000000000000000000000000000000000000000000000000000815260040161278490613f89565b60405180910390fd5b600073ffffffffffffffffffffffffffffffffffffffff168273ffffffffffffffffffffffffffffffffffffffff1614156127fd576040517f08c379a00000000000000000000000000000000000000000000000000000000081526004016127f49061401b565b60405180910390fd5b61280883838361270d565b612813600082611ede565b6001600360008573ffffffffffffffffffffffffffffffffffffffff1673ffffffffffffffffffffffffffffffffffffffff16815260200190815260200160002060008282546128639190613bbb565b925050819055506001600360008473ffffffffffffffffffffffffffffffffffffffff1673ffffffffffffffffffffffffffffffffffffffff16815260200190815260200160002060008282546128ba919061368b565b92505081905550816002600083815260200190815260200160002060006101000a81548173ffffffffffffffffffffffffffffffffffffffff021916908373ffffffffffffffffffffffffffffffffffffffff160217905550808273ffffffffffffffffffffffffffffffffffffffff168473ffffffffffffffffffffffffffffffffffffffff167fddf252ad1be2c89b69c2b068fc378daa952ba7f163c4a11628f55a4df523b3ef60405160405180910390a4612979838383612712565b505050565b600061299f8473ffffffffffffffffffffffffffffffffffffffff16612b06565b15612af9578373ffffffffffffffffffffffffffffffffffffffff1663150b7a026129c8611ed6565b8786866040518563ffffffff1660e01b81526004016129ea9493929190614090565b6020604051808303816000875af1925050508015612a2657506040513d601f19601f82011682018060405250810190612a2391906140f1565b60015b612aa9573d8060008114612a56576040519150601f19603f3d011682016040523d82523d6000602084013e612a5b565b606091505b50600081511415612aa1576040517f08c379a0000000000000000000000000000000000000000000000000000000008152600401612a9890613e37565b60405180910390fd5b805181602001fd5b63150b7a0260e01b7bffffffffffffffffffffffffffffffffffffffffffffffffffffffff1916817bffffffffffffffffffffffffffffffffffffffffffffffffffffffff191614915050612afe565b600190505b949350505050565b6000808273ffffffffffffffffffffffffffffffffffffffff163b119050919050565b828054612b3590613421565b90600052602060002090601f016020900481019282612b575760008555612b9e565b82601f10612b7057805160ff1916838001178555612b9e565b82800160010185558215612b9e579182015b82811115612b9d578251825591602001919060010190612b82565b5b509050612bab9190612baf565b5090565b5b80821115612bc8576000816000905550600101612bb0565b5090565b6000604051905090565b600080fd5b600080fd5b60007fffffffff0000000000000000000000000000000000000000000000000000000082169050919050565b612c1581612be0565b8114612c2057600080fd5b50565b600081359050612c3281612c0c565b92915050565b600060208284031215612c4e57612c4d612bd6565b5b6000612c5c84828501612c23565b91505092915050565b60008115159050919050565b612c7a81612c65565b82525050565b6000602082019050612c956000830184612c71565b92915050565b600081519050919050565b600082825260208201905092915050565b60005b83811015612cd5578082015181840152602081019050612cba565b83811115612ce4576000848401525b50505050565b6000601f19601f8301169050919050565b6000612d0682612c9b565b612d108185612ca6565b9350612d20818560208601612cb7565b612d2981612cea565b840191505092915050565b60006020820190508181036000830152612d4e8184612cfb565b905092915050565b6000819050919050565b612d6981612d56565b8114612d7457600080fd5b50565b600081359050612d8681612d60565b92915050565b600060208284031215612da257612da1612bd6565b5b6000612db084828501612d77565b91505092915050565b600073ffffffffffffffffffffffffffffffffffffffff82169050919050565b6000612de482612db9565b9050919050565b612df481612dd9565b82525050565b6000602082019050612e0f6000830184612deb565b92915050565b612e1e81612dd9565b8114612e2957600080fd5b50565b600081359050612e3b81612e15565b92915050565b60008060408385031215612e5857612e57612bd6565b5b6000612e6685828601612e2c565b9250506020612e7785828601612d77565b9150509250929050565b7f4e487b7100000000000000000000000000000000000000000000000000000000600052602160045260246000fd5b60048110612ec157612ec0612e81565b5b50565b6000819050612ed282612eb0565b919050565b6000612ee282612ec4565b9050919050565b612ef281612ed7565b82525050565b6000602082019050612f0d6000830184612ee9565b92915050565b600080fd5b600080fd5b7f4e487b7100000000000000000000000000000000000000000000000000000000600052604160045260246000fd5b612f5582612cea565b810181811067ffffffffffffffff82111715612f7457612f73612f1d565b5b80604052505050565b6000612f87612bcc565b9050612f938282612f4c565b919050565b600067ffffffffffffffff821115612fb357612fb2612f1d565b5b612fbc82612cea565b9050602081019050919050565b82818337600083830152505050565b6000612feb612fe684612f98565b612f7d565b90508281526020810184848401111561300757613006612f18565b5b613012848285612fc9565b509392505050565b600082601f83011261302f5761302e612f13565b5b813561303f848260208601612fd8565b91505092915050565b60006020828403121561305e5761305d612bd6565b5b600082013567ffffffffffffffff81111561307c5761307b612bdb565b5b6130888482850161301a565b91505092915050565b61309a81612d56565b82525050565b60006020820190506130b56000830184613091565b92915050565b6000806000606084860312156130d4576130d3612bd6565b5b60006130e286828701612e2c565b93505060206130f386828701612e2c565b925050604061310486828701612d77565b9150509250925092565b6000806040838503121561312557613124612bd6565b5b600061313385828601612d77565b925050602083013567ffffffffffffffff81111561315457613153612bdb565b5b6131608582860161301a565b9150509250929050565b6000602082840312156131805761317f612bd6565b5b600061318e84828501612e2c565b91505092915050565b6000806000606084860312156131b0576131af612bd6565b5b60006131be86828701612e2c565b935050602084013567ffffffffffffffff8111156131df576131de612bdb565b5b6131eb8682870161301a565b925050604084013567ffffffffffffffff81111561320c5761320b612bdb565b5b6132188682870161301a565b9150509250925092565b61322b81612c65565b811461323657600080fd5b50565b60008135905061324881613222565b92915050565b6000806040838503121561326557613264612bd6565b5b600061327385828601612e2c565b925050602061328485828601613239565b9150509250929050565b600067ffffffffffffffff8211156132a9576132a8612f1d565b5b6132b282612cea565b9050602081019050919050565b60006132d26132cd8461328e565b612f7d565b9050828152602081018484840111156132ee576132ed612f18565b5b6132f9848285612fc9565b509392505050565b600082601f83011261331657613315612f13565b5b81356133268482602086016132bf565b91505092915050565b6000806000806080858703121561334957613348612bd6565b5b600061335787828801612e2c565b945050602061336887828801612e2c565b935050604061337987828801612d77565b925050606085013567ffffffffffffffff81111561339a57613399612bdb565b5b6133a687828801613301565b91505092959194509250565b600080604083850312156133c9576133c8612bd6565b5b60006133d785828601612e2c565b92505060206133e885828601612e2c565b9150509250929050565b7f4e487b7100000000000000000000000000000000000000000000000000000000600052602260045260246000fd5b6000600282049050600182168061343957607f821691505b6020821081141561344d5761344c6133f2565b5b50919050565b7f4552433732313a20617070726f76656420717565727920666f72206e6f6e657860008201527f697374656e7420746f6b656e0000000000000000000000000000000000000000602082015250565b60006134af602c83612ca6565b91506134ba82613453565b604082019050919050565b600060208201905081810360008301526134de816134a2565b9050919050565b7f4552433732313a20617070726f76616c20746f2063757272656e74206f776e6560008201527f7200000000000000000000000000000000000000000000000000000000000000602082015250565b6000613541602183612ca6565b915061354c826134e5565b604082019050919050565b6000602082019050818103600083015261357081613534565b9050919050565b7f4552433732313a20617070726f76652063616c6c6572206973206e6f74206f7760008201527f6e6572206e6f7220617070726f76656420666f7220616c6c0000000000000000602082015250565b60006135d3603883612ca6565b91506135de82613577565b604082019050919050565b60006020820190508181036000830152613602816135c6565b9050919050565b600081905092915050565b600061361f82612c9b565b6136298185613609565b9350613639818560208601612cb7565b80840191505092915050565b60006136518284613614565b915081905092915050565b7f4e487b7100000000000000000000000000000000000000000000000000000000600052601160045260246000fd5b600061369682612d56565b91506136a183612d56565b9250827fffffffffffffffffffffffffffffffffffffffffffffffffffffffffffffffff038211156136d6576136d561365c565b5b828201905092915050565b7f41646d696e206f72206f776e6572206f6e6c792066756e6374696f6e00000000600082015250565b6000613717601c83612ca6565b9150613722826136e1565b602082019050919050565b600060208201905081810360008301526137468161370a565b9050919050565b7f546f6b656e2069732061626e6f726d616c000000000000000000000000000000600082015250565b6000613783601183612ca6565b915061378e8261374d565b602082019050919050565b600060208201905081810360008301526137b281613776565b9050919050565b60006060820190506137ce6000830186612deb565b6137db6020830185612deb565b6137e86040830184613091565b949350505050565b7f41646d696e206f6e6c792066756e6374696f6e00000000000000000000000000600082015250565b6000613826601383612ca6565b9150613831826137f0565b602082019050919050565b6000602082019050818103600083015261385581613819565b9050919050565b7f4552433732313a206f776e657220717565727920666f72206e6f6e657869737460008201527f656e7420746f6b656e0000000000000000000000000000000000000000000000602082015250565b60006138b8602983612ca6565b91506138c38261385c565b604082019050919050565b600060208201905081810360008301526138e7816138ab565b9050919050565b7f4552433732313a2062616c616e636520717565727920666f7220746865207a6560008201527f726f206164647265737300000000000000000000000000000000000000000000602082015250565b600061394a602a83612ca6565b9150613955826138ee565b604082019050919050565b600060208201905081810360008301526139798161393d565b9050919050565b600061398b82612d56565b91507fffffffffffffffffffffffffffffffffffffffffffffffffffffffffffffffff8214156139be576139bd61365c565b5b600182019050919050565b60006060820190506139de6000830186612deb565b81810360208301526139f08185612cfb565b90506139ff6040830184613091565b949350505050565b7f4552433732313a207472616e736665722063616c6c6572206973206e6f74206f60008201527f776e6572206e6f7220617070726f766564000000000000000000000000000000602082015250565b6000613a63603183612ca6565b9150613a6e82613a07565b604082019050919050565b60006020820190508181036000830152613a9281613a56565b9050919050565b7f4552433732314d657461646174613a2055524920717565727920666f72206e6f60008201527f6e6578697374656e7420746f6b656e0000000000000000000000000000000000602082015250565b6000613af5602f83612ca6565b9150613b0082613a99565b604082019050919050565b60006020820190508181036000830152613b2481613ae8565b9050919050565b6000613b378285613614565b9150613b438284613614565b91508190509392505050565b7f546f6b656e20697320696e76616c69646174656420616c726561647900000000600082015250565b6000613b85601c83612ca6565b9150613b9082613b4f565b602082019050919050565b60006020820190508181036000830152613bb481613b78565b9050919050565b6000613bc682612d56565b9150613bd183612d56565b925082821015613be457613be361365c565b5b828203905092915050565b7f4552433732313a206d696e7420746f20746865207a65726f2061646472657373600082015250565b6000613c25602083612ca6565b9150613c3082613bef565b602082019050919050565b60006020820190508181036000830152613c5481613c18565b9050919050565b7f4552433732313a20746f6b656e20616c7265616479206d696e74656400000000600082015250565b6000613c91601c83612ca6565b9150613c9c82613c5b565b602082019050919050565b60006020820190508181036000830152613cc081613c84565b9050919050565b7f4552433732313a20617070726f766520746f2063616c6c657200000000000000600082015250565b6000613cfd601983612ca6565b9150613d0882613cc7565b602082019050919050565b60006020820190508181036000830152613d2c81613cf0565b9050919050565b7f4552433732313a206f70657261746f7220717565727920666f72206e6f6e657860008201527f697374656e7420746f6b656e0000000000000000000000000000000000000000602082015250565b6000613d8f602c83612ca6565b9150613d9a82613d33565b604082019050919050565b60006020820190508181036000830152613dbe81613d82565b9050919050565b7f4552433732313a207472616e7366657220746f206e6f6e20455243373231526560008201527f63656976657220696d706c656d656e7465720000000000000000000000000000602082015250565b6000613e21603283612ca6565b9150613e2c82613dc5565b604082019050919050565b60006020820190508181036000830152613e5081613e14565b9050919050565b7f4e487b7100000000000000000000000000000000000000000000000000000000600052601260045260246000fd5b6000613e9182612d56565b9150613e9c83612d56565b925082613eac57613eab613e57565b5b828204905092915050565b6000613ec282612d56565b9150613ecd83612d56565b925082613edd57613edc613e57565b5b828206905092915050565b7f4e487b7100000000000000000000000000000000000000000000000000000000600052603260045260246000fd5b7f4552433732313a207472616e736665722066726f6d20696e636f72726563742060008201527f6f776e6572000000000000000000000000000000000000000000000000000000602082015250565b6000613f73602583612ca6565b9150613f7e82613f17565b604082019050919050565b60006020820190508181036000830152613fa281613f66565b9050919050565b7f4552433732313a207472616e7366657220746f20746865207a65726f2061646460008201527f7265737300000000000000000000000000000000000000000000000000000000602082015250565b6000614005602483612ca6565b915061401082613fa9565b604082019050919050565b6000602082019050818103600083015261403481613ff8565b9050919050565b600081519050919050565b600082825260208201905092915050565b60006140628261403b565b61406c8185614046565b935061407c818560208601612cb7565b61408581612cea565b840191505092915050565b60006080820190506140a56000830187612deb565b6140b26020830186612deb565b6140bf6040830185613091565b81810360608301526140d18184614057565b905095945050505050565b6000815190506140eb81612c0c565b92915050565b60006020828403121561410757614106612bd6565b5b6000614115848285016140dc565b9150509291505056fea2646970667358221220ddc6582bf62625ca82d9570fb0ec8d7ca597665fac56ef2f06dcacca8cb0a6de64736f6c634300080b0033",
  "immutableReferences": {},
  "source": "//SPDX-License-Identifier: MIT\npragma solidity ^0.8.11;\nimport \"@openzeppelin/contracts/token/ERC721/ERC721.sol\";\n\ncontract LuxChain is ERC721 {\n    address _owner = msg.sender;\n    uint256 _supply;\n\n    enum stages{\n        normal,\n        lost,\n        invalidating,\n        invalidate\n    }\n\n    mapping(uint256 => Token) tokens;\n    mapping(string => uint256) serialNumbers;\n\n    event mintToken(address _to, string _serNumber, uint256 tokenId);\n    event transferEvent(address _from, address _to, uint256 _tokenId);\n    event invalidToken(uint256 _tokenId);\n    event tokendestory(uint256 _tokenId);\n    event tokenLost(uint256 _tokenId);\n    event tokenrestored(uint256 _tokenId);\n\n    constructor(string memory _name, string memory _symbol)\n        ERC721(_name, _symbol)\n    {}\n\n    struct Token {\n        string serialNumber;\n        string name;\n        string information;\n        stages state;\n        uint256 time;\n    }\n\n    modifier stateoftoken(uint256 tokenId) {\n        require(tokens[tokenId].state == stages.normal, \"Token is abnormal\");\n        _;\n    }\n\n    modifier validToken(uint256 tokenId) {\n        require(tokens[tokenId].state != stages.invalidate, \"Token is invalidated already\");\n        _;\n    }\n\n    modifier timedDestory(uint256 _tokenId) {\n        if (tokens[_tokenId].state == stages.invalidating && block.timestamp >= tokens[_tokenId].time + 8 days) {\n            // now the admin can directly call the invalidated to invalidate the token\n            tokens[_tokenId].state = stages.invalidate;\n            super._burn(_tokenId);\n            emit tokendestory(_tokenId);\n        }\n        _;\n    }\n\n    //admin can call this function to destroy the invalidating token\n    function invalidated(uint256 _tokenId) external adminOnly { \n        if (tokens[_tokenId].state == stages.invalidating && block.timestamp >= tokens[_tokenId].time + 8 days) {\n            tokens[_tokenId].state = stages.invalidate;\n            super._burn(_tokenId);\n            emit tokendestory(_tokenId);\n        }\n    }\n\n    modifier adminOnly {\n        require(msg.sender == _owner, \"Admin only function\");\n        _;\n    }\n\n    modifier adminOrOwnerOnly(uint256 _tokenId) {\n        require(msg.sender == _owner || msg.sender == ownerOf(_tokenId), \"Admin or owner only function\");\n        _;\n    }\n\n    // When a product is sold, an accompanying token created\n    function mint(address _to, string memory _serialNumber, string memory _name) public adminOnly {\n        super._mint(_to, _supply);\n        Token memory newToken = Token(_serialNumber, _name, '', stages.normal, block.timestamp);\n        tokens[_supply] = newToken;\n        serialNumbers[_serialNumber] = _supply++;\n        emit mintToken(_to, _serialNumber, _supply);\n    }\n\n    //When customer goes to the counter, admin could use this function to make the state of token to be invalidating\n    //If customer is the current owner, the token could be restored in 8 days using restoreToken()\n    //Or the admin could destroy the token after 8 days using invalidated()\n    function invalidateToken(uint256 _tokenId) public adminOnly timedDestory(_tokenId) stateoftoken(_tokenId) {\n        tokens[_tokenId].state = stages.invalidating;\n        tokens[_tokenId].time = block.timestamp;\n        emit invalidToken(_tokenId);\n    }\n\n    //Customer could use this to report loss, and the state would be 'lost'\n    //Admin could use restoreToken to change state back to 'normal'\n    function reportlost(uint256 _tokenId) public adminOrOwnerOnly(_tokenId) timedDestory(_tokenId) stateoftoken(_tokenId) {\n        tokens[_tokenId].state = stages.lost;\n        emit tokenLost(_tokenId);\n    }\n\n    function restoreToken(uint256 _tokenId) public adminOnly timedDestory(_tokenId) validToken(_tokenId)  {\n        tokens[_tokenId].state = stages.normal;\n        emit tokenrestored(_tokenId);\n    }\n\n    function checkState(uint256 _tokenId) public view returns(stages)  {\n        return tokens[_tokenId].state;\n    }\n\n    function transferFrom(address _from, address _to, uint256 _tokenId) public override timedDestory(_tokenId) adminOrOwnerOnly(_tokenId) stateoftoken(_tokenId) {\n        super.transferFrom(_from, _to, _tokenId);\n        tokens[_tokenId].information = '';\n        emit transferEvent(_from, _to, _tokenId);\n    }\n\n    function updateInformation(uint256 _tokenId, string memory _information) public adminOrOwnerOnly(_tokenId) timedDestory(_tokenId) {\n        tokens[_tokenId].information = _information;\n    }\n\n    function viewSerialNumber(uint256 _tokenId)\n        public\n        view\n        returns (string memory)\n    {\n        return tokens[_tokenId].serialNumber;\n    }\n\n    function viewName(uint256 _tokenId) public view returns (string memory) {\n        return tokens[_tokenId].name;\n    }\n\n    function viewTokenId(string memory _serialNumber)\n        public\n        view\n        returns (uint256)\n    {\n        return serialNumbers[_serialNumber];\n    }\n\n    function getTotalSupply() public view returns (uint256) {\n        return _supply;\n    }\n\n    /*\n    function ownerOf(uint256 tokenId) public view virtual override returns (address) {\n        address owner = _owners[tokenId];\n        require(owner != address(0), \"ERC721: owner query for nonexistent token\");\n        return owner;\n    }\n    */\n}\n",
  "sourcePath": "/Users/lokki/Documents/GitHub/dApp-Project-LuxChain/contracts/LuxChain.sol",
  "compiler": {
    "name": "solc",
    "version": "0.8.11+commit.d7f03943.Emscripten.clang"
  },
  "schemaVersion": "3.4.4",
  "updatedAt": "2022-04-15T06:45:52.071Z",
  "networkType": "ethereum",
  "devdoc": {
    "kind": "dev",
    "methods": {
      "approve(address,uint256)": {
        "details": "See {IERC721-approve}."
      },
      "balanceOf(address)": {
        "details": "See {IERC721-balanceOf}."
      },
      "getApproved(uint256)": {
        "details": "See {IERC721-getApproved}."
      },
      "isApprovedForAll(address,address)": {
        "details": "See {IERC721-isApprovedForAll}."
      },
      "name()": {
        "details": "See {IERC721Metadata-name}."
      },
      "ownerOf(uint256)": {
        "details": "See {IERC721-ownerOf}."
      },
      "safeTransferFrom(address,address,uint256)": {
        "details": "See {IERC721-safeTransferFrom}."
      },
      "safeTransferFrom(address,address,uint256,bytes)": {
        "details": "See {IERC721-safeTransferFrom}."
      },
      "setApprovalForAll(address,bool)": {
        "details": "See {IERC721-setApprovalForAll}."
      },
      "supportsInterface(bytes4)": {
        "details": "See {IERC165-supportsInterface}."
      },
      "symbol()": {
        "details": "See {IERC721Metadata-symbol}."
      },
      "tokenURI(uint256)": {
        "details": "See {IERC721Metadata-tokenURI}."
      }
    },
    "version": 1
  },
  "userdoc": {
    "kind": "user",
    "methods": {},
    "version": 1
  }
}